{
  "contractName": "C",
  "abi": [
    {
      "inputs": [],
      "name": "f",
      "outputs": [],
      "stateMutability": "payable",
      "type": "function"
    }
  ],
  "bytecode": "0x608060405260008060006101000a81548173ffffffffffffffffffffffffffffffffffffffff021916908373ffffffffffffffffffffffffffffffffffffffff16021790555034801561005157600080fd5b5060c7806100606000396000f3fe608060405260043610601c5760003560e01c806326121ff0146021575b600080fd5b60276029565b005b60008054906101000a900473ffffffffffffffffffffffffffffffffffffffff1673ffffffffffffffffffffffffffffffffffffffff166108fc349081150290604051600060405180830381858888f19350505050158015608e573d6000803e3d6000fd5b5056fea2646970667358221220b08d1e8bede18a1716c629331efb7e1ca07462c6e4a19c196bd61ce96a21ab7064736f6c63430008040033",
  "immutableReferences": {},
  "source": "pragma solidity ^0.8.4;\n\ncontract C {\n    address zeroAddr = address(0x0);\n\n    function f() public payable {\n        payable(zeroAddr).transfer(msg.value);\n    }\n}\n",
  "sourcePath": "/Users/gerald.nash@coinbase.com/external/salus/spec/fixtures/slither/solidity-bad3/contracts/bad-contract1.sol",
  "compiler": {
    "name": "solc",
    "version": "0.8.4+commit.c7e474f2.Emscripten.clang"
  },
  "schemaVersion": "3.4.7",
  "updatedAt": "2022-06-15T16:13:44.781Z",
  "devdoc": {
    "kind": "dev",
    "methods": {},
    "version": 1
  },
  "userdoc": {
    "kind": "user",
    "methods": {},
    "version": 1
  }
}